{
	"data": {
		"bytecode": {
			"linkReferences": {},
			"object": "6080604052348015600e575f5ffd5b506104b38061001c5f395ff3fe608060405234801561000f575f5ffd5b5060043610610029575f3560e01c806341976e091461002d575b5f5ffd5b610047600480360381019061004291906101fb565b61005f565b60405161005693929190610271565b60405180910390f35b5f5f5f5f8490505f5f8273ffffffffffffffffffffffffffffffffffffffff1663feaf968c6040518163ffffffff1660e01b815260040160a060405180830381865afa1580156100b1573d5f5f3e3d5ffd5b505050506040513d601f19601f820116820180604052508101906100d59190610339565b509350509250505f821361011e576040517f08c379a00000000000000000000000000000000000000000000000000000000081526004016101159061040a565b60405180910390fd5b8195508273ffffffffffffffffffffffffffffffffffffffff1663313ce5676040518163ffffffff1660e01b8152600401602060405180830381865afa15801561016a573d5f5f3e3d5ffd5b505050506040513d601f19601f8201168201806040525081019061018e9190610452565b94508093505050509193909250565b5f5ffd5b5f73ffffffffffffffffffffffffffffffffffffffff82169050919050565b5f6101ca826101a1565b9050919050565b6101da816101c0565b81146101e4575f5ffd5b50565b5f813590506101f5816101d1565b92915050565b5f602082840312156102105761020f61019d565b5b5f61021d848285016101e7565b91505092915050565b5f819050919050565b61023881610226565b82525050565b5f60ff82169050919050565b6102538161023e565b82525050565b5f819050919050565b61026b81610259565b82525050565b5f6060820190506102845f83018661022f565b610291602083018561024a565b61029e6040830184610262565b949350505050565b5f69ffffffffffffffffffff82169050919050565b6102c4816102a6565b81146102ce575f5ffd5b50565b5f815190506102df816102bb565b92915050565b6102ee81610226565b81146102f8575f5ffd5b50565b5f81519050610309816102e5565b92915050565b61031881610259565b8114610322575f5ffd5b50565b5f815190506103338161030f565b92915050565b5f5f5f5f5f60a086880312156103525761035161019d565b5b5f61035f888289016102d1565b9550506020610370888289016102fb565b945050604061038188828901610325565b935050606061039288828901610325565b92505060806103a3888289016102d1565b9150509295509295909350565b5f82825260208201905092915050565b7f696e76616c6964207072696365000000000000000000000000000000000000005f82015250565b5f6103f4600d836103b0565b91506103ff826103c0565b602082019050919050565b5f6020820190508181035f830152610421816103e8565b9050919050565b6104318161023e565b811461043b575f5ffd5b50565b5f8151905061044c81610428565b92915050565b5f602082840312156104675761046661019d565b5b5f6104748482850161043e565b9150509291505056fea2646970667358221220e0249134b21ee2aa9832e90d59f6cdf41a95c8be6a834acc5f056a268f5fe37864736f6c634300081e0033",
			"opcodes": "PUSH1 0x80 PUSH1 0x40 MSTORE CALLVALUE DUP1 ISZERO PUSH1 0xE JUMPI PUSH0 PUSH0 REVERT JUMPDEST POP PUSH2 0x4B3 DUP1 PUSH2 0x1C PUSH0 CODECOPY PUSH0 RETURN INVALID PUSH1 0x80 PUSH1 0x40 MSTORE CALLVALUE DUP1 ISZERO PUSH2 0xF JUMPI PUSH0 PUSH0 REVERT JUMPDEST POP PUSH1 0x4 CALLDATASIZE LT PUSH2 0x29 JUMPI PUSH0 CALLDATALOAD PUSH1 0xE0 SHR DUP1 PUSH4 0x41976E09 EQ PUSH2 0x2D JUMPI JUMPDEST PUSH0 PUSH0 REVERT JUMPDEST PUSH2 0x47 PUSH1 0x4 DUP1 CALLDATASIZE SUB DUP2 ADD SWAP1 PUSH2 0x42 SWAP2 SWAP1 PUSH2 0x1FB JUMP JUMPDEST PUSH2 0x5F JUMP JUMPDEST PUSH1 0x40 MLOAD PUSH2 0x56 SWAP4 SWAP3 SWAP2 SWAP1 PUSH2 0x271 JUMP JUMPDEST PUSH1 0x40 MLOAD DUP1 SWAP2 SUB SWAP1 RETURN JUMPDEST PUSH0 PUSH0 PUSH0 PUSH0 DUP5 SWAP1 POP PUSH0 PUSH0 DUP3 PUSH20 0xFFFFFFFFFFFFFFFFFFFFFFFFFFFFFFFFFFFFFFFF AND PUSH4 0xFEAF968C PUSH1 0x40 MLOAD DUP2 PUSH4 0xFFFFFFFF AND PUSH1 0xE0 SHL DUP2 MSTORE PUSH1 0x4 ADD PUSH1 0xA0 PUSH1 0x40 MLOAD DUP1 DUP4 SUB DUP2 DUP7 GAS STATICCALL ISZERO DUP1 ISZERO PUSH2 0xB1 JUMPI RETURNDATASIZE PUSH0 PUSH0 RETURNDATACOPY RETURNDATASIZE PUSH0 REVERT JUMPDEST POP POP POP POP PUSH1 0x40 MLOAD RETURNDATASIZE PUSH1 0x1F NOT PUSH1 0x1F DUP3 ADD AND DUP3 ADD DUP1 PUSH1 0x40 MSTORE POP DUP2 ADD SWAP1 PUSH2 0xD5 SWAP2 SWAP1 PUSH2 0x339 JUMP JUMPDEST POP SWAP4 POP POP SWAP3 POP POP PUSH0 DUP3 SGT PUSH2 0x11E JUMPI PUSH1 0x40 MLOAD PUSH32 0x8C379A000000000000000000000000000000000000000000000000000000000 DUP2 MSTORE PUSH1 0x4 ADD PUSH2 0x115 SWAP1 PUSH2 0x40A JUMP JUMPDEST PUSH1 0x40 MLOAD DUP1 SWAP2 SUB SWAP1 REVERT JUMPDEST DUP2 SWAP6 POP DUP3 PUSH20 0xFFFFFFFFFFFFFFFFFFFFFFFFFFFFFFFFFFFFFFFF AND PUSH4 0x313CE567 PUSH1 0x40 MLOAD DUP2 PUSH4 0xFFFFFFFF AND PUSH1 0xE0 SHL DUP2 MSTORE PUSH1 0x4 ADD PUSH1 0x20 PUSH1 0x40 MLOAD DUP1 DUP4 SUB DUP2 DUP7 GAS STATICCALL ISZERO DUP1 ISZERO PUSH2 0x16A JUMPI RETURNDATASIZE PUSH0 PUSH0 RETURNDATACOPY RETURNDATASIZE PUSH0 REVERT JUMPDEST POP POP POP POP PUSH1 0x40 MLOAD RETURNDATASIZE PUSH1 0x1F NOT PUSH1 0x1F DUP3 ADD AND DUP3 ADD DUP1 PUSH1 0x40 MSTORE POP DUP2 ADD SWAP1 PUSH2 0x18E SWAP2 SWAP1 PUSH2 0x452 JUMP JUMPDEST SWAP5 POP DUP1 SWAP4 POP POP POP POP SWAP2 SWAP4 SWAP1 SWAP3 POP JUMP JUMPDEST PUSH0 PUSH0 REVERT JUMPDEST PUSH0 PUSH20 0xFFFFFFFFFFFFFFFFFFFFFFFFFFFFFFFFFFFFFFFF DUP3 AND SWAP1 POP SWAP2 SWAP1 POP JUMP JUMPDEST PUSH0 PUSH2 0x1CA DUP3 PUSH2 0x1A1 JUMP JUMPDEST SWAP1 POP SWAP2 SWAP1 POP JUMP JUMPDEST PUSH2 0x1DA DUP2 PUSH2 0x1C0 JUMP JUMPDEST DUP2 EQ PUSH2 0x1E4 JUMPI PUSH0 PUSH0 REVERT JUMPDEST POP JUMP JUMPDEST PUSH0 DUP2 CALLDATALOAD SWAP1 POP PUSH2 0x1F5 DUP2 PUSH2 0x1D1 JUMP JUMPDEST SWAP3 SWAP2 POP POP JUMP JUMPDEST PUSH0 PUSH1 0x20 DUP3 DUP5 SUB SLT ISZERO PUSH2 0x210 JUMPI PUSH2 0x20F PUSH2 0x19D JUMP JUMPDEST JUMPDEST PUSH0 PUSH2 0x21D DUP5 DUP3 DUP6 ADD PUSH2 0x1E7 JUMP JUMPDEST SWAP2 POP POP SWAP3 SWAP2 POP POP JUMP JUMPDEST PUSH0 DUP2 SWAP1 POP SWAP2 SWAP1 POP JUMP JUMPDEST PUSH2 0x238 DUP2 PUSH2 0x226 JUMP JUMPDEST DUP3 MSTORE POP POP JUMP JUMPDEST PUSH0 PUSH1 0xFF DUP3 AND SWAP1 POP SWAP2 SWAP1 POP JUMP JUMPDEST PUSH2 0x253 DUP2 PUSH2 0x23E JUMP JUMPDEST DUP3 MSTORE POP POP JUMP JUMPDEST PUSH0 DUP2 SWAP1 POP SWAP2 SWAP1 POP JUMP JUMPDEST PUSH2 0x26B DUP2 PUSH2 0x259 JUMP JUMPDEST DUP3 MSTORE POP POP JUMP JUMPDEST PUSH0 PUSH1 0x60 DUP3 ADD SWAP1 POP PUSH2 0x284 PUSH0 DUP4 ADD DUP7 PUSH2 0x22F JUMP JUMPDEST PUSH2 0x291 PUSH1 0x20 DUP4 ADD DUP6 PUSH2 0x24A JUMP JUMPDEST PUSH2 0x29E PUSH1 0x40 DUP4 ADD DUP5 PUSH2 0x262 JUMP JUMPDEST SWAP5 SWAP4 POP POP POP POP JUMP JUMPDEST PUSH0 PUSH10 0xFFFFFFFFFFFFFFFFFFFF DUP3 AND SWAP1 POP SWAP2 SWAP1 POP JUMP JUMPDEST PUSH2 0x2C4 DUP2 PUSH2 0x2A6 JUMP JUMPDEST DUP2 EQ PUSH2 0x2CE JUMPI PUSH0 PUSH0 REVERT JUMPDEST POP JUMP JUMPDEST PUSH0 DUP2 MLOAD SWAP1 POP PUSH2 0x2DF DUP2 PUSH2 0x2BB JUMP JUMPDEST SWAP3 SWAP2 POP POP JUMP JUMPDEST PUSH2 0x2EE DUP2 PUSH2 0x226 JUMP JUMPDEST DUP2 EQ PUSH2 0x2F8 JUMPI PUSH0 PUSH0 REVERT JUMPDEST POP JUMP JUMPDEST PUSH0 DUP2 MLOAD SWAP1 POP PUSH2 0x309 DUP2 PUSH2 0x2E5 JUMP JUMPDEST SWAP3 SWAP2 POP POP JUMP JUMPDEST PUSH2 0x318 DUP2 PUSH2 0x259 JUMP JUMPDEST DUP2 EQ PUSH2 0x322 JUMPI PUSH0 PUSH0 REVERT JUMPDEST POP JUMP JUMPDEST PUSH0 DUP2 MLOAD SWAP1 POP PUSH2 0x333 DUP2 PUSH2 0x30F JUMP JUMPDEST SWAP3 SWAP2 POP POP JUMP JUMPDEST PUSH0 PUSH0 PUSH0 PUSH0 PUSH0 PUSH1 0xA0 DUP7 DUP9 SUB SLT ISZERO PUSH2 0x352 JUMPI PUSH2 0x351 PUSH2 0x19D JUMP JUMPDEST JUMPDEST PUSH0 PUSH2 0x35F DUP9 DUP3 DUP10 ADD PUSH2 0x2D1 JUMP JUMPDEST SWAP6 POP POP PUSH1 0x20 PUSH2 0x370 DUP9 DUP3 DUP10 ADD PUSH2 0x2FB JUMP JUMPDEST SWAP5 POP POP PUSH1 0x40 PUSH2 0x381 DUP9 DUP3 DUP10 ADD PUSH2 0x325 JUMP JUMPDEST SWAP4 POP POP PUSH1 0x60 PUSH2 0x392 DUP9 DUP3 DUP10 ADD PUSH2 0x325 JUMP JUMPDEST SWAP3 POP POP PUSH1 0x80 PUSH2 0x3A3 DUP9 DUP3 DUP10 ADD PUSH2 0x2D1 JUMP JUMPDEST SWAP2 POP POP SWAP3 SWAP6 POP SWAP3 SWAP6 SWAP1 SWAP4 POP JUMP JUMPDEST PUSH0 DUP3 DUP3 MSTORE PUSH1 0x20 DUP3 ADD SWAP1 POP SWAP3 SWAP2 POP POP JUMP JUMPDEST PUSH32 0x696E76616C696420707269636500000000000000000000000000000000000000 PUSH0 DUP3 ADD MSTORE POP JUMP JUMPDEST PUSH0 PUSH2 0x3F4 PUSH1 0xD DUP4 PUSH2 0x3B0 JUMP JUMPDEST SWAP2 POP PUSH2 0x3FF DUP3 PUSH2 0x3C0 JUMP JUMPDEST PUSH1 0x20 DUP3 ADD SWAP1 POP SWAP2 SWAP1 POP JUMP JUMPDEST PUSH0 PUSH1 0x20 DUP3 ADD SWAP1 POP DUP2 DUP2 SUB PUSH0 DUP4 ADD MSTORE PUSH2 0x421 DUP2 PUSH2 0x3E8 JUMP JUMPDEST SWAP1 POP SWAP2 SWAP1 POP JUMP JUMPDEST PUSH2 0x431 DUP2 PUSH2 0x23E JUMP JUMPDEST DUP2 EQ PUSH2 0x43B JUMPI PUSH0 PUSH0 REVERT JUMPDEST POP JUMP JUMPDEST PUSH0 DUP2 MLOAD SWAP1 POP PUSH2 0x44C DUP2 PUSH2 0x428 JUMP JUMPDEST SWAP3 SWAP2 POP POP JUMP JUMPDEST PUSH0 PUSH1 0x20 DUP3 DUP5 SUB SLT ISZERO PUSH2 0x467 JUMPI PUSH2 0x466 PUSH2 0x19D JUMP JUMPDEST JUMPDEST PUSH0 PUSH2 0x474 DUP5 DUP3 DUP6 ADD PUSH2 0x43E JUMP JUMPDEST SWAP2 POP POP SWAP3 SWAP2 POP POP JUMP INVALID LOG2 PUSH5 0x6970667358 0x22 SLT KECCAK256 RJUMP 0x2491 CALLVALUE 0xB2 0x1E 0xE2 0xAA SWAP9 ORIGIN 0xE9 0xD MSIZE 0xF6 0xCD DELEGATECALL BYTE SWAP6 0xC8 0xBE PUSH11 0x834ACC5F056A268F5FE378 PUSH5 0x736F6C6343 STOP ADDMOD 0x1E STOP CALLER "
		},
		"gasEstimates": {
			"creation": {
				"codeDepositCost": "240600",
				"executionCost": "279",
				"totalCost": "240879"
			},
			"external": {
				"getPrice(address)": "infinite"
			}
		},
		"methodIdentifiers": {
			"getPrice(address)": "41976e09"
		}
	},
	"abi": [
		{
			"inputs": [
				{
					"internalType": "address",
					"name": "feed",
					"type": "address"
				}
			],
			"name": "getPrice",
			"outputs": [
				{
					"internalType": "int256",
					"name": "price",
					"type": "int256"
				},
				{
					"internalType": "uint8",
					"name": "feedDecimals",
					"type": "uint8"
				},
				{
					"internalType": "uint256",
					"name": "updatedAt",
					"type": "uint256"
				}
			],
			"stateMutability": "view",
			"type": "function"
		}
	]
}